:020000040800F2
:10000000200D002021020008250200082702000818
:10001000290200082B0200082D0200080000000041
:100020000000000000000000000000002F02000897
:100030003102000800000000330200083502000809
:1000400037020008370200083702000837020008AC
:10005000370200083702000837020008370200089C
:10006000370200083702000837020008370200088C
:10007000370200083702000837020008370200087C
:10008000370200083702000837020008370200086C
:10009000370200083702000837020008370200085C
:1000A000370200083702000837020008370200084C
:1000B000370200083702000837020008370200083C
:1000C000370200083702000837020008370200082C
:1000D000370200083702000863080008BD1D000849
:1000E00063250008370200083702000837020008BD
:1000F00037020008370200083702000837020008FC
:1001000037020008370200083702000837020008EB
:1001100037020008370200083702000837020008DB
:1001200037020008370200083702000837020008CB
:1001300000F002F800F05FF80AA090E8000C82449A
:100140008344AAF10107DA4501D100F054F8AFF277
:10015000090EBAE80F0013F0010F18BFFB1A43F0A5
:100160000103184734A7000054A700000A444FF0C9
:10017000000C10F8013B13F0070408BF10F8014B06
:100180001D1108BF10F8015B641E05D010F8016B4B
:10019000641E01F8016BF9D113F0080F1EBF10F8AF
:1001A000014BAD1C0C1B09D16D1E58BF01F801CBD2
:1001B000FAD505E014F8016B01F8016B6D1EF9D555
:1001C0009142D6D37047000000230024002500266A
:1001D000103A28BF78C1FBD8520728BF30C148BFAA
:1001E0000B607047642906F07F82002070471FB5BE
:1001F0001FBD10B510BD06F045FC1146FFF7F7FF17
:1002000000F02AF806F063FC03B4FFF7F2FF03BC2A
:1002100000F032FA30BF72B662B680F308887047D9
:1002200008480047FEE7FEE7FEE7FEE7FEE7FEE7D9
:10023000FEE7FEE7FEE7FEE703480449044A054BF4
:10024000704700003101000820070020200D002029
:100250002009002020090020092000F0B4F94820DE
:1002600000F054F8022000F099F9012000F096F90E
:1002700000F0E8FC00F020FD00F061FF4FF4FA31DF
:10028000482000F013FA4FF41651242000F074FABD
:100290004FF4E131242001F016FD01F013F801F0D4
:1002A00057FA322000F06AF805F0CDFA05F0DFFACF
:1002B0004FF4FA7000F062F801F0D0FC0E2141F624
:1002C0001F4001F025F91BE00E48007860B906F0E8
:1002D00067F801200C49087005F05CFD00BF0A4872
:1002E00000780028FBD10BE005F0D2FF05F052FDAD
:1002F00001200549087000BF034800780028FBD1A1
:10030000E2E7000004000020410000204FF0E0215F
:10031000096921F004014FF0E0221161C21700EBDE
:100320005272C2F3C702234B1A701946097801EBC7
:100330004102C2EBC1114FF6FF7202EAC1011E4A2F
:100340001180704701461B4A12784A434FF0E02360
:100350005A6100229A6101221A6100BF4FF0E02227
:10036000106900F001021AB100F48032002AF5D0C1
:1003700000224FF0E0231A619A61704701460E4A4D
:1003800012884A434FF0E0235A6100229A61012209
:100390001A6100BF4FF0E022106900F001021AB1AB
:1003A00000F48032002AF5D000224FF0E0231A61D9
:1003B0009A6170477C0000207E000020A34A0A401A
:1003C0000243A34B1A6070470146072323EA010248
:1003D00012029F4B1B1D18684FF6FF0318409D4BE0
:1003E000184310439A4B1B1D186070472DE9F041CC
:1003F0000746884614461D462846FFF7E5FFC5F127
:10040000040007FA00F60F20284100EA080006431E
:1004100006F00F06E21704EBD2625211920002F1CD
:10042000E022D2F800212146E31704EBD3635B11ED
:10043000A4EB431C012303FA0CF31A432046E317F1
:1004400004EBD3635B119B0003F1E023C3F80021AD
:100450008148005D40EA06107F490855BDE8F081FB
:1004600070B504460B46CE1701EB9676C6F38700AF
:10047000CE1701EB9676B610A1EB8606B606350EC2
:10048000764B9B6943F00103744EB3614FEAB63378
:1004900053F820300F26AE40B343714E46F820305B
:1004A000334653F8203004FA05F61E436C4B43F8EC
:1004B00020606C4B1B6801268E403343694E3360CD
:1004C00002F0010343B1674B0C331B6801268E40D9
:1004D0003343644E0C36336002F0020343B1614B88
:1004E00008331E6801238B401E435E4B08331E6099
:1004F00070BD00B5002059490861C86014204861EA
:1005000000208861C8610846006840F0010008606A
:100510000846406854490840504948600846006809
:10052000524908404D4908600846006820F4802080
:1005300008600846406820F4FE004860002088609B
:1005400000214FF00060FFF739FF00BD10B54048B3
:100550000830006840F004003D49083108603F4819
:10056000C06940F080503D49C8614148406840F44E
:1005700080703F4948600846006840F00400086009
:100580000846006840F002000860FFF743FE10BD17
:100590003048001D2E49091D086070470146490674
:1005A0002E4A926942F001022C4B9A612C4A083A79
:1005B000526822F0E0622A4B083B5A601A465268A1
:1005C0000A435A60704730B504460025FFF791FF93
:1005D0002248006840F480302049086000BF1F486E
:1005E0000068400C0028FAD04FF480601B49486036
:1005F000A01EC4B20846406840EA844048600846ED
:10060000406840F4803048601A48006840F032008A
:10061000184908601148006840F080700F49086070
:1006200000BF0E480068400E0028FAD00B48406812
:1006300040F002000949486005E008484068C0F3FE
:10064000870505F00305022DF7D130BD80FFFF1FA0
:1006500008ED00E00000FA0500E400E000100240B0
:1006600008000140000401400000FFF8FFFFF6FE13
:100670000070004000200240014600BF704700BFEC
:10068000FE4A128802F04002002AF9D0C2B2FB4BA7
:100690001B1D1A807047FA49088000BFF849091FDE
:1006A000098801F040010029F8D070472DE9F05F7A
:1006B00005460E46300108F077FA8146F14905FB00
:1006C00001F008F071FA8246494608F023F907461E
:1006D000384608F031FA84B2204608F065FA8346BD
:1006E000394608F0A6FB82464FF0834108F0A4FA91
:1006F000814608F021FA80464FF6FF7000EA0414A4
:1007000004EB080084B2E048806940F00400DE4950
:1007100088610846806940F480408861DB48006851
:1007200020F47F60D94908600846006840F40B60F7
:100730000860D548C06840F48040D349C860084686
:10074000C06820F48040C860CD48001D0480001DB2
:10075000008842F20C010843C94908310880BDE80D
:10076000F09FC649091D088000BFC449098801F0EF
:1007700040010029F9D070472DE9F05F05460E468B
:10078000300108F011FA8146BE4905FB01F008F07E
:100790000BFA8246494608F0BDF80746384608F08D
:1007A000CBF984B2204608F0FFF98346394608F0B9
:1007B00040FB82464FF0834108F03EFA814608F044
:1007C000BBF980464FF6FF7000EA041404EB080002
:1007D00084B2AD48806940F00400AB4988610846A6
:1007E000C06940F40030C861A848001F006820F4C8
:1007F0007F40A649091F08600846006840F40B4086
:100800000860A2480830006840F480609F490831C1
:1008100008609D48006940F480209B4908610846B3
:10082000006920F480200861944808300480001D8D
:10083000008842F20C01084390490C3108800846B8
:10084000008840F4807008800846008840F020004E
:1008500008800223262200210846FFF7C7FDBDE8D5
:10086000F09F2DE9FF5F8548008800F020000028F8
:1008700070D08248001D00888549086008460068DD
:10088000582807D18348006808B9012000E00020FB
:10089000804908607E4800680A2865DD7C48006859
:1008A0005A2809D100207C4908707C4908707C498D
:1008B00008707C49087057E07548006841280AD1E3
:1008C0000120754908700020744908707449087047
:1008D0007449087048E06E48006845280BD1002034
:1008E0006D49087001206D49087000206C4908703E
:1008F0006C49087038E066480068422807D06448B0
:100900000068432803D06248006844280AD10020C8
:1009100061490870614908706149087001206149A6
:10092000087021E05A480068462807D058480068F7
:10093000472803D05648006848280CD10020564963
:100940000870564908700120554908700020554923
:10095000087009E008E100204F4908704F4908700D
:100960004F4908704F490870494800680A2862DA00
:100970004748006848B9002047490870474908704F
:10098000474908704749087055E041480068012808
:1009900009D1414908700020404908704049087059
:1009A0004049087047E03A48006805280BD100200C
:1009B0003949087001203949087000203849087009
:1009C0003849087037E032480068022807D03048BC
:1009D0000068032803D02E48006804280AD10020AC
:1009E0002D4908702D4908702D49087001202D49A6
:1009F000087020E026480068062807D024480068D0
:100A0000072803D02248006808280BD1002022497B
:100A100008702249087001202149087000202149EE
:100A2000087008E000201C4908701C4908701C4927
:100A300008701C490870164800687B2802D1012004
:100A400019490870124800687D2802D10220164911
:100A500008701548007801280AD10D48007813491C
:100A6000134A1278885412480078401C10490870C4
:100A70000D480078022877D10C481BE00044004064
:100A80000438014040420F000010024004080140B9
:100A9000840000208C012242050000200600002076
:100AA0000000002001000020880000205C010020E0
:100AB00089000020C078502803D1012054490870D3
:100AC00068E054484078232864D05348007853495C
:100AD000087034E050490978504A1278881A07F0B3
:100AE00008FB804642460B4600204D4906F076FB47
:100AF00004460D4649490978491E464A515CA1F110
:100B0000300007F0F6FA064622462B4607F058FB5F
:100B100082468B464348006807F062FE52465B46B9
:100B2000CDE9000107F0A2F8CDE9020107F06CF869
:100B30003C49086039480078401E384908703748F9
:100B400000780428C6DA334840783038092820D2A3
:100B5000DFE800F0050B10151A1B1C1D1E003148A4
:100B600000683149086014E021E02E4800682F49F0
:100B700008600EE02B4800682D49086009E029480C
:100B800000682C49086004E003E002E001E000E0B6
:100B900000BF00BF0020284908701F4908701F4986
:100BA00008702049086032211A4805F00BFE002029
:100BB00004B0BDE8F09F21480078F8B120480068F3
:100BC0005A281BD000201D4A10701D4800680128BB
:100BD00006DB1B480068082802DC194801780BE096
:100BE00017480068412807DB15480068482803DCDF
:100BF000134800784038C1B2084670471048006872
:100C00005A2802D101200D4A10700020F5E700009B
:100C1000420000205C010020890000208A000020A2
:100C2000000024408C0000206C0000207000002098
:100C30007400002078000020880000209000002030
:100C4000840000201748806940F008001549886139
:100C50001548006820F470001349086008460068D1
:100C600040F44010086010480830006840F400501C
:100C70000D4908310860704718B900210B4A11600E
:100C80000FE00B490968491C094A1160814208D1EB
:100C900006490968C943074AC2F8B4110021044A49
:100CA0001160704700100240040C0140B4812142E1
:100CB00094000020008021425948806940F00800DB
:100CC00057498861574800685749084055490860A6
:100CD00008460068554908435249086051480830A1
:100CE000006840F480504F490831086008460068A9
:100CF00040F480400860704701464D48006828B9BC
:100D00004C480088401C4B4A108002E00020494AB1
:100D100010804748006828B94748007810B901207A
:100D2000454A107045480078B0B94348007801281A
:100D300007D143480078401C414A107001203F4AC7
:100D400010703F480078022806D100203C4A1070FD
:100D50003C4A10800220704735480068012804D1C1
:100D60000020354A1070354A107035480078012847
:100D70001CD134480088401C324A1080104600883C
:100D800088420ADD2B480088884206DA00202C4A77
:100D900010702C4A10800120DDE726480088884228
:100DA00004DD0020264A1070264A10800020D2E779
:100DB0002548007838B11E48006820B90020224933
:100DC0000870012070471A480068012801D11E49A7
:100DD00008700020F6E71D48008840B914480068F4
:100DE00028B91B480088401C1949088002E00020EF
:100DF0001749088016480088C82807DD01201349D4
:100E00000880002012490880012070470F480088A0
:100E1000012802D100200D4908800020F5E70000DC
:100E200000100240040C0140FFFFF0F00000080831
:100E3000388121429E000020980000209900002067
:100E40009A0000209C000020A0000020A4000020A8
:100E5000A200002010B50A461AB10123FE4C2360FF
:100E600002E00023FC4C2360002116E00023FA4C32
:100E70003434236000F080031BB10123241D236060
:100E800003E00023F44C383423600123F24C343463
:100E900023604306180E4B1CD9B20829E6DB012358
:100EA000ED4C236010BD30B500241CE004F1B0010E
:100EB000C8B20021FFF7CEFF00210846FFF7CAFFA6
:100EC00000211020FFF7C6FF002508E0E34901EBF1
:100ED000C501085D0121FFF7BDFF681CC5B2802D6B
:100EE000F4DB601CC4B2082CE0DB30BD00B500218F
:100EF0008D20FFF7AFFF00211420FFF7ABFF00218B
:100F0000AF20FFF7A7FF00BD00B500218D20FFF740
:100F1000A1FF00211020FFF79DFF0021AE20FFF769
:100F200099FF00BD30B500240CE0002506E000204C
:100F3000CA4901EBC5010855681CC5B2802DF6DB16
:100F4000601CC4B2082CF0DBFFF7ADFF30BDF0B57C
:100F5000144600267F2801DC3F2900DDF0BD0B464A
:100F6000CF1701EB5777FF10C7F10707FAB2CF177A
:100F700001EB5777FF10A1EBC707FDB2C5F10707DB
:100F80000123BB40DEB24CB1B44B03EBC0039B5C0E
:100F90003343B24F07EBC007BB5408E0AF4B03EB42
:100FA000C0039B5CB343AD4F07EBC007BB5400BF0E
:100FB000D4E72DE9F04F80460C4615461E46A34661
:100FC000A5F12000C5B200273EE00C2E07D105EBAD
:100FD0004500A34901EB800010F8079004E0A14808
:100FE00000EB051010F807904FF0000A26E009F01A
:100FF000800028B121464046099AFFF7A8FF09E082
:10100000099808B9012000E0002002462146404628
:10101000FFF79DFF4FEA49604FEA1069601CC4B2B8
:10102000A4EB0B00B04205D15C4608F1010000F0D2
:10103000FF0806E00AF1010000F0FF0ABAF1080F0C
:10104000D5DB00BF781CC7B2B742BEDBBDE8F08F6E
:1010500010B50246012000E050430B00A1F101044D
:10106000E1B2F9D110BD2DE9FF4F81B0074691469D
:101070001E460E9D4FF0000A002439E0301B401E32
:10108000C1B20A20FFF7E4FFB9FBF0F00A21B0FB80
:10109000F1F201FB1208BAF1000F16D1701EA04246
:1010A00013DDB8F1000F0ED10120AB4605EBDB716B
:1010B000491001FB04710090C8B22B46202202990E
:1010C000FFF777FF12E04FF0010A0120AB4605EB76
:1010D000DB71491001FB04710090C8B208F13001C6
:1010E000CAB22B460299FFF764FF00BF601CC4B26E
:1010F000B442C3DB05B0BDE8F08F78B505460E46B7
:10110000144618E07A2D03DD002506F11000C6B262
:101110003A2E04DD002005460646FFF703FF0120B6
:10112000009022780C2331462846FFF742FF05F154
:101130000800C5B2641C20780028E3D178BD10B542
:101140004948806940F01000474988610846806935
:1011500040F00100886145484068C0F313004349EE
:10116000486008464068424908434049486008468C
:10117000006820F00F0008600846006840F0020098
:1011800008603C48006840F480703A49086036487E
:10119000006A20F00100344908623748008820F0D6
:1011A0000100354908803348006820F480703149D7
:1011B0000860002028493C3108606420FFF7DEF811
:1011C00001202E49C1F8BC010021AE20FFF742FEEC
:1011D0000021D520FFF73EFE00215020FFF73AFE08
:1011E0000021A820FFF736FE00213F20FFF732FE46
:1011F0000021D320FFF72EFE00210846FFF72AFE2C
:1012000000214020FFF726FE00218D20FFF722FE5F
:1012100000211420FFF71EFE00212020FFF71AFEF8
:1012200000210220FFF716FE0021A120FFF712FE89
:101230000021C020FFF70EFE0021DA20FFF70AFE92
:1012400000211220FFF706FE00218120FFF702FE99
:101250000021EF2014E00000800122428E010020D6
:1012600022900008969400080010024000100140EF
:101270000000202200700040306C0040000022423C
:10128000FFF7E8FD0021D920FFF7E4FD0021F12060
:10129000FFF7E0FD0021DB20FFF7DCFD002130201F
:1012A000FFF7D8FD0021A420FFF7D4FD0021A620E0
:1012B000FFF7D0FD0021AF20FFF7CCFDFFF732FE96
:1012C00010BD00006D48806940F004006B498861E2
:1012D0006B48006820F470006949086067488069BD
:1012E00040F40070654988610846C06840F40070A9
:1012F000C8600846C06820F40070C86008464068AE
:1013000020F4404048600846406840F4004048608F
:101310005C4800685C4908405A4908600846006813
:1013200008600846006820F480700860081D0068A6
:1013300020F00200091D08600846006820F46020C3
:1013400008600846006840F46020086008460068AD
:1013500040F4801008600846006820F400600860CF
:1013600048482830006820F4700046492831086059
:10137000084600680020086042480C30006820F4ED
:10138000700040490C3108600846006840F4603045
:1013900008603C48001D006840F001003949091D03
:1013A00008600846006840F00800086000BF354843
:1013B000001D006800F008000028F8D13148001D29
:1013C000006840F004002F49091D086000BF2D4847
:1013D000001D006800F004000028F8D170470146A5
:1013E00028483030006820F01F00264A3032106054
:1013F00010460068084310602248001D006840F451
:101400008000204A121D106000BF1E48001F0068A7
:1014100000F002000028F8D01A484830006880B276
:1014200070472DE9F04F87B00520FFF7D8FF0190F6
:1014300006F076FE80464FF06632144B06F0C0FE92
:101440000022134BCDE9020106F0BAFE0022114B37
:10145000CDE9040106F0B4FE064600220E4B06F06C
:10146000C1FC044600220D4B06F0BCFC824606F08F
:1014700011FE0690069807B0BDE8F08F00100240FC
:101480000008014004240140FFFFF00066660A40A6
:1014900000002640000059400000F03F0000B0402E
:1014A000A148806940F008009F498861084680692A
:1014B00040F0100088619D48006820F0FF009B49C3
:1014C00008600846006840F02200086097480C3029
:1014D000006840F0010095490C31086094480068AC
:1014E00094490840924908600846006892490843B8
:1014F0008F4908600846C068C8600846C06840F068
:101500001000C8600846C06840F02000C8607047FE
:1015100000B502460B46FFF7C3FF8348806940F4DD
:101520000060814988610846C06940F00100C861D7
:101530000846C06940F00200C8610846C06940F032
:101540000400C8610846806940F0040088610846CC
:10155000806940F0080088617848006820F00F003A
:10156000764908600846006840F00B000860081FD4
:101570000068734908407149091F086008460068FF
:10158000704908436D49091F08606F480280001FB9
:1015900003806D481438008840F060006A491439AF
:1015A00008800846008840F00800088066480C382B
:1015B000008840F0010064490C3908806248183006
:1015C000008840F400406049183108805E482C389B
:1015D000008840F001005C492C3908804FF46160BC
:1015E000594908310880800682850385008B40F0C8
:1015F0006000090708830846008B40F00800088354
:101600000846008C40F0010008840846008840F03D
:10161000010008804FF4616088864C480280001FFA
:1016200003804A481438008840F060004749143964
:1016300008800846008840F00800088043480C38BD
:10164000008840F0010041490C3908803F482C389F
:10165000008840F001003D492C3908804FF461605A
:101660003A490831088000BD10B5374B18800E2369
:10167000354C241F2380344B2C3B1B88324C2C3C94
:101680002380314B143B1B8843F060032E4C143CE9
:1016900023802D4B0C3B1B8843F001032A4C0C3C50
:1016A000238023461B8823804310274C0834238043
:1016B00023079A850E232407238523461B8823802E
:1016C00023461B8B43F06003238323461B8C43F08C
:1016D0000103238423461B8C23845310A3861B4BB6
:1016E00019800E23194C241F2380184B2C3B1B8878
:1016F000164C2C3C2380154B143B1B8843F0600395
:10170000124C143C2380114B0C3B1B8843F001030B
:101710000E4C0C3C238023461B8823804B100B4C23
:101720000834238010BD000000100240000C01406E
:1017300000100140FF0F00FF0020220004080140BC
:10174000F0FFFFF00B00000B2C2C01402C0400409C
:10175000F748806940F00800F5498861F54800685D
:1017600020F47F40F34908600846006840F44C507C
:101770000860704710B5EF48006820F47040ED49EC
:1017800008600846006840F4405008600120EA49BB
:101790000860EA48D0F82C0108B9002010BD0120EB
:1017A000E549091F0860FEF7CDFD0020E349C1F8B7
:1017B000AC01E1488038006808B10020EEE7012064
:1017C000FEF7C0FD0020DC49091F08600120E5E7A5
:1017D00010B5D848006820F47040D6490860084623
:1017E000006840F4405008600020D349091F086099
:1017F000D249C1F8AC010120FEF7A4FD0120CE4979
:10180000091F0860CD49C1F8AC01FEF79BFD10BD72
:1018100010B50024C748006820F47040C54908602E
:101820000846006840F4004008600120C249086092
:10183000FEF788FD0120C149C1F8A801FEF782FD2D
:101840000AE0601CC4B2322C03DDFFF7C1FF0020A8
:1018500010BD0120FEF776FDB748803800680028EB
:10186000EFD1B549091F08600120F1E710B500204C
:10187000B149091F0860AF48006820F47040AD49C5
:1018800008600846006840F4405008600020AB49FA
:10189000C1F8AC010120FEF755FD0120A649091F42
:1018A0000860FEF74FFD0020A449C1F8A80110BD53
:1018B00010B50020A049091F08609E48006820F468
:1018C00070409C4908600846006840F44050086039
:1018D00001209A49C1F8AC01FEF734FD0120964978
:1018E000091F0860FEF72EFD00209449C1F8A801E9
:1018F00010BD70B504468F48006820F470408D49D3
:1019000008600846006840F44050086000208A499A
:10191000091F0860002516E0E00987490860600695
:10192000040E0120FEF70EFD01208449C1F8A80134
:10193000FEF708FD00208049091F08600120FEF71E
:1019400001FD681CC5B2082DE6DB70BD2DE9F04134
:1019500005460E4617469846FFF70CFF10B90120C2
:10196000BDE8F0816906080EFFF7C3FFFFF750FFDF
:1019700018B9FFF72DFF0120F2E73046FFF7B9FF56
:10198000FFF746FF00240BE018F80400FFF7B1FF53
:10199000FFF73EFF18B9FFF71BFF0020E0E7641CCC
:1019A000BC42F1DBFFF714FF0020D9E770B5054614
:1019B00000246048006820F470405E4908600846D2
:1019C000006840F400400860002617E000205A49F3
:1019D000091F08600220FEF7B5FC01205749C1F835
:1019E000A8016006040E54488038006808B1601CE5
:1019F000C4B20220FEF7A6FC701CC6B2082EE5DBBE
:101A000015B1FFF733FF01E0FFF752FF204670BD2D
:101A10002DE9F04106460F4614461D46FFF7AAFE83
:101A200010B90120BDE8F0817106080EFFF761FFD3
:101A3000FFF7EEFE18B9FFF7CBFE0120F2E73846BC
:101A4000FFF757FFFFF7E4FEFFF794FE012101EBDC
:101A50004601C8B2FFF74DFFFFF7DAFE0DE0012C9B
:101A600004D10020FFF7A2FF287003E00120FFF758
:101A70009DFF28706D1C601EC4B2002CEFD1FFF7D3
:101A8000A7FE0020CEE770B505460E460024FFF7FE
:101A900071FE2846FFF72DFF641CFFF7B9FE3046A4
:101AA000FFF727FF641CFFF7B3FEFFF763FE691C17
:101AB000C8B2FFF71EFF641CFFF7AAFE0020FFF765
:101AC00075FF0446FFF784FE204670BD2DE9F04106
:101AD0000746884615461E460024FFF74BFE38464B
:101AE000FFF707FFFFF794FE4046FFF702FFFFF7FF
:101AF0008FFEFFF73FFE791CC8B2FFF7FAFEFFF733
:101B000087FE00BF0DE0681EA04204D00120FFF751
:101B10004DFF305503E00020FFF748FF3055601CB3
:101B2000C4B2AC42EFDBFFF753FE2046BDE8F081C4
:101B300000100240040C0140AC812142008021428F
:101B40002DE9F04180460D4616461F460024FFF75A
:101B500011FE4046FFF7CDFEFFF75AFE2846FFF77D
:101B6000C8FEFFF755FE00BF06E0385DFFF7C1FE77
:101B7000FFF74EFE601CC4B2B442F6DBFFF728FE4E
:101B80000120BDE8F08170B505460E461446314689
:101B90002846FFF778FF2070012070BD37B5044656
:101BA0000D4602AB012229462046FFF7C9FF3EBD84
:101BB0002DE9F8430746884614461D46089E6A46A6
:101BC00041463846FFF7DFFF28B3601CFF2101FACA
:101BD00000F0C4F108012944491EFF220A411043C4
:101BE00000F0FF09C5F1080006FA00F0C6B2C4F122
:101BF000070006419DF8000000EA090000909DF8EA
:101C00000000304300909DF8002041463846FFF721
:101C1000C5FFBDE8F8830020FBE7F8B506460F4690
:101C200014461D466A4639463046FFF7ACFF2DB1D3
:101C30000120A0409DF80010084305E00120A040CD
:101C40009DF8001021EA0000C0B200909DF800202D
:101C500039463046FFF7A2FFF8BD000010B5124824
:101C6000806940F00800104988611048006820F041
:101C700070400E4908600846006840F00040086067
:101C80000A480830006840F40040084908310860FC
:101C900001220F211046FEF7E3FB02232822012137
:101CA0000846FEF7A3FB10BD00100240040C0140E3
:101CB0004549088000BF4449091F098801F04001D7
:101CC0000029F8D070472DE9F05F05460E46300137
:101CD00006F06AFF81463D4905FB01F006F064FF0E
:101CE0008246494606F016FE0746384606F024FFAF
:101CF00084B2204606F058FF8346394607F099F82B
:101D000082464FF0834106F097FF814606F014FFAC
:101D100080464FF6FF7000EA041404EB080084B21A
:101D20002B48806940F00100294988610846806994
:101D300040F0100088610846C06940F48020C86106
:101D40002448406820F47F402249486008464068A3
:101D500040F40B4048600846C06840F48060C860AA
:101D60001D48406840F010001B4948601848006951
:101D700040F48020164908610846006920F480205C
:101D800008611148001D0480001D008842F20C010A
:101D900008430D49083108800846008840F48070E7
:101DA00008800846008840F020000880022327228F
:101DB00001210020FEF71AFBBDE8F09F0248001F3A
:101DC00000880020704700000448004040420F0097
:101DD0000010024000100140000001402DE9F047D2
:101DE0008CB004468946924651464FF07E5006F02C
:101DF00023FF0646214606F01FFD054606F080FE3D
:101E0000FE49086051464FF07E5006F015FF05462A
:101E100006F0E6FCCDE90801484606F0E1FC05467F
:101E20000E460020F64905F0C9FE074600224FF095
:101E3000804305F0D7FF2A463346CDE9000106F07E
:101E4000BFF9CDE904014FF03F41204606F0F4FE12
:101E5000054606F0C5FCCDE90201DDE9042305F0E5
:101E600005FFCDE90601DDE9082305F0FFFECDE918
:101E70000A0106F00FF9E349086051464FF07E5021
:101E800006F0DAFE054606F0ABFCCDE9080148464F
:101E900006F0A6FCCDE902010020D94905F08EFE2E
:101EA000054600224FF0804305F09CFFCDE900017C
:101EB000DDE9022306F084F9074688464FF03F41EA
:101EC000204606F0B9FE054606F08AFC3A4643462F
:101ED000CDE9040106F09AFBCDE90601DDE908230E
:101EE00005F0C4FECDE90A0106F0D4F8C649086041
:101EF0000CB0BDE8F0872DE9F74F82B08A469346D3
:101F00004FF08041029806F097FE0546514606F0D4
:101F10009BFF0446594606F097FFBC490860002025
:101F2000B74905F04BFE04460D465946504606F0AB
:101F30008BFF019006F054FC064622462B4606F025
:101F40003FF9804605F060FEB149086051460298AD
:101F500006F072FC0446594606F06EFCAD49086076
:101F600005B0BDE8F08F0146002901DA484200E0E3
:101F70000846704710B504462046FFF7F4FFA6490F
:101F8000B1FBF0F3B3F5803F02D34FF6FF7200E0F0
:101F90009AB2104610BD2DE9F04781460C46154611
:101FA000B9F1000F03DD00209C49086002E0012028
:101FB0009A490860002C04DD00209849091D08603A
:101FC00003E001209549091D0860002D03DD002074
:101FD0009349086002E00120914908604846FFF7F4
:101FE000C9FF06462046FFF7C5FF07462846FFF70C
:101FF000C1FF8046424639463046FFF735FBBDE813
:10200000F08770B5054687480078012817D08649C3
:102010008648006806F0DCFD11D3854983480068D6
:1020200006F0D6FE0BD380498248006806F0D0FD4A
:1020300005D37F497F48006806F0CAFE0FD201240D
:102040000020764908607C49C1F894017449086011
:102050007249091F086001207249087004E00120DC
:102060006E49091F08600024204670BD7349096845
:102070004242914202DA4142704A11606F49096856
:10208000814201DD6D4908606D4909684242914213
:1020900002DA41426A4A116069490968814201DDF8
:1020A00067490860674909684242914202DA414241
:1020B000644A116063490968814201DD6149086031
:1020C000704770B502460023012108E05E4C34F8E9
:1020D00011504C1E5C4E26F814504C1CE1B21929CC
:1020E000F4DB14B2584D2C86002105E0564C34F92F
:1020F000114023444C1CE1B21929F7DB192493FB4E
:10210000F4F420B270BD2DE9F14F50480078012859
:1021100004D14F4800684F4908600DE04E480078F0
:10212000012806D14A48006880F00040494908600B
:1021300002E00020474908600098FFF7C2FF04460C
:1021400006F01AFD454908604548006806F048FB5E
:1021500006464FF06632434B06F032F8044605F06F
:1021600053FD3F4908603D48006806F039FB804652
:102170004FF033323C4B06F023F804460D46384806
:10218000006806F02DFB064622462B4605F06EFD44
:10219000824605F039FD3249086008460168334837
:1021A000006806F049FB314908602A4801682F4859
:1021B000006806F041FB2D4908602D492B48006856
:1021C00006F006FE02D22A48284908602949274815
:1021D000006806F0FDFC02D2264824490860114838
:1021E000007810B1002021490860234801681F4889
:1021F000006806F021FD0646204941E0200000204D
:1022000000000840240000202800002008000020D2
:102210000C0000201000002040420F0090012242DC
:102220008081214202000020000070C24400002092
:1022300000007042480000200000224214000020EC
:10224000180000201C000020C00500200500002010
:10225000EC000020E800002006000020E000002044
:10226000E40000206666E63F3333D33FF0000020F1
:10227000007C1248007C12C87800002000409C4579
:1022800006F048FB0446F9480168F948006806F082
:10229000D3FC0646F74906F03DFB0546214606F00D
:1022A000CBFAF5490860F548007808B100200860CD
:1022B000F3480068F3490860EF480068F249086095
:1022C000F249ED48006806F083FD02D2EF48EA4982
:1022D0000860EF49E848006806F07AFC02D2EC4852
:1022E000E5490860E448006806F00AFCBDE8F88F9C
:1022F00070B502460023012108E0E64C34F8115085
:102300004C1EE44E26F814504C1CE1B21929F4DBA3
:1023100014B2E04D2C86002105E0DE4C34F911406A
:1023200023444C1CE1B21929F7DB192493FBF4F484
:1023300020B270BD2DE9F14FD7480078012806D1B1
:10234000D648006880F00040D54908600BE0D548C9
:102350000078012804D1D1480068D149086002E022
:102360000020CF4908600098FFF7C2FF044606F03E
:1023700003FCCD490860CD48006806F031FA0646F6
:102380004FF06632CA4B05F01BFF044605F03CFCDB
:10239000C6490860C448006806F022FA80464FF03B
:1023A0003332C44B05F00CFF04460D46BF480068AD
:1023B00006F016FA064622462B4605F057FC8246E2
:1023C00005F022FCB949086008460168BA4800686F
:1023D00006F032FAB8490860B1480168B6480068AA
:1023E00006F02AFAB4490860B449B348006806F018
:1023F000EFFC02D2B148B0490860B149AE4800686C
:1024000006F0E6FB02D2AE48AB4908609B48007874
:1024100010B10020A8490860AA480168A6480068D1
:1024200006F00AFC0646A84906F074FA04468F48EE
:1024300001689E48006806F0FFFB06468D4906F0DD
:1024400069FA0546214606F0F7F9A04908608B486D
:10245000007808B100200860974800689C4908602F
:102460009A4800689B49086088499848006806F0C7
:10247000AFFC02D2854895490860854993480068B9
:1024800006F0A6FB02D28248904908608F48006897
:1024900006F036FBBDE8F88F2DE9F05F04460D46E7
:1024A00026468D480168284606F0C6FB83467149DA
:1024B00006F030FA814631468848006806F0BCFBD9
:1024C0008246494606F0B8F9804606F019FB0746F1
:1024D0003846BDE8F09F2DE9F05F04460D462646DC
:1024E0007D480168284606F0A7FB8346614906F04F
:1024F00011FA814631467948006806F09DFB824614
:10250000494606F099F9804606F0FAFA0746384639
:10251000BDE8F09F70B54B20FEF7EEFB0446FEF7DA
:102520005AFC0546012C07D15448007808B901200F
:1025300000E0002051490870022C07D1684800785B
:1025400008B9012000E0002065490870012D07D17D
:102550006448007808B9012000E000206149087053
:1025600070BD70B56048006800287DD14FF4004010
:102570005E4908605E48007808B9012000E000204C
:102580005B4908705B48007801280BD15A480078F5
:10259000401CC0B2584908700A2803D100200870B6
:1025A000544908705248007801285ED103F0C0F900
:1025B000FFF7B0FF5148006806F012F90446504A90
:1025C000504B05F0FBFE21D24C48006806F008F99C
:1025D00004464B4A4C4B05F0B7FD17D24B480068F8
:1025E00006F0FEF80446464A464B05F0E7FE0DD2DB
:1025F0004648006806F0F4F80446414A424B05F0AC
:10260000A3FD03D20020FEF737FB02E06420FEF7B3
:1026100033FBFEF706FF054606F0AEFA04463C48DB
:102620000168204606F008F9394908604FF07E51EC
:102630003848006806F000F93649044608600D493C
:1026400006F02AFA0ED10B493148006806F062F90B
:10265000044606F055FA3049086000202C4908600D
:102660002C490860002070BDF2E057E074000020A3
:10267000E40000200000C842DC000020020000202E
:10268000F0000020340000203C00002000007A44CC
:1026900000007AC48E05002000000020D400002035
:1026A000D000002001000020C8000020CC00002045
:1026B0006666E63F3333D33FD8000020007C1248E3
:1026C000007C12C87800002000409C45C400002017
:1026D0003000002038000020700000206C00002036
:1026E00003000020040000203C812142140401402A
:1026F000A8000020410000204000002060000020D1
:102700009A9999999999E9BF9999E93F5C000020B4
:10271000B0000020AC0000202C00002003F008F9DD
:102720004C4801684C48006806F08EFB4B49086035
:102730004B4801684B48006806F086FB4A49086030
:102740004A48006806F018FA04464948006806F04E
:1027500013FA05464748006806F00EFA0646224678
:102760002946FFF7C8FB4449B1F9020006F004FA14
:10277000044621463C480068FFF7ADFE3F4908602B
:102780003D49B1F9000006F0F7F904462146334807
:102790000068FFF781FE4042394908603948006807
:1027A00006F0AEF90446FFF7C5FD37490860374823
:1027B000006806F0A5F90446FFF7A5FC3449086057
:1027C0002E490968304A1268881806F0D5F931494F
:1027D00008602B4909682E4A1268881806F0CCF95F
:1027E0002D49086000202D490860084602682A48E3
:1027F000016828480068FFF7F1FA294800681D4978
:102800000860284800681A49086027480068174986
:10281000086040F21450FFF729FC24480068FFF7D5
:10282000F0FB38B911480268114801681148006886
:10283000FFF7B1FB1E48007850B107480068054912
:1028400008600848006806490860002018490870B8
:10285000002070BD64000020480000205C000020C3
:102860006800002044000020600000201C000020C0
:10287000180000201400002020010020B4000020D7
:10288000BC00002008000020B80000200C00002040
:10289000C0000020500000205400002058000020FC
:1028A0002000002024000020280000202C00002010
:1028B0000300002038B50446FB4890F82400C0B15E
:1028C00014B10220009001E000200090F64A126846
:1028D000D17BF54A526810786B460122FFF736F833
:1028E00010B14FF0FF3038BD9DF80010EE48417434
:1028F00023E0ED48807A10B94FF0FF30F3E724B1C0
:10290000E948407C08B10020EDE714B101200090B7
:1029100001E000200090E44A1268D17BE24A52684C
:1029200010786B460122FFF711F810B14FF0FF301D
:10293000D9E79DF80010DC4841740020D3E738B592
:10294000002419E0D8480068C07AA04204D0D648D4
:102950000068407DA04200D10CE0D3494968087866
:102960006B4601222146FFF753F810B14FF0FF30BC
:1029700038BD00BF601CC4B2CB4840680079A0429B
:10298000E0DC0020F4E770B504460D46C648006858
:10299000C07AA04204D0C4480068407DA04202D161
:1029A0004FF0FF3070BDC04840680079A04202DCA3
:1029B0004FF0FF30F6E7BC49496808782B46012202
:1029C0002146FFF725F8EDE738B50446B64890F8FC
:1029D0002300A04201D1002038BD14B13020009066
:1029E00001E000200090B048807C20B19DF80000FC
:1029F00040F002000090AC4890F8220020B19DF811
:102A0000000040F080000090A74A1268117DA64A9D
:102A1000526810786B460122FEF798FF10B14FF014
:102A2000FF30D9E7A04880F823400020D4E738B52C
:102A3000044604F0700010B10120009005E014B1CC
:102A40000020009001E040200090974A1268917C9D
:102A5000954A526810786B460122FEF777FF20B145
:102A6000002191488172481E38BD9DF8000020F079
:102A700040018D4801730020009004F0400020B90F
:102A80009DF8000040F00400009004F0200020B900
:102A90009DF8000040F00200009004F0100020B902
:102AA0009DF8000040F00100009004F0080020B9FB
:102AB0009DF8000040F0380000907B4A1268D17CFD
:102AC000794A526810786B460122FEF73FFF20B129
:102AD000002175488172481EC6E724B1082C02D037
:102AE0000020FFF771FF70488472002101753220C9
:102AF000FDF744FC0020B7E738B504466A48807CFF
:102B0000A04201D1002038BD002C46D0664A126890
:102B10001179654A526810786B460122FEF778FFFA
:102B200010B14FF0FF30EEE79DF8000020F02000DC
:102B300000905D4A126811795B4A526810786B46C2
:102B40000122FEF703FF10B14FF0FF30DBE7032057
:102B5000FDF714FC02200090534890F8220020B1A9
:102B60009DF8000040F0800000904F4890F823004E
:102B700020B19DF8000040F0300000904A4A1268F1
:102B8000117D494A526810786B460122FEF7DEFE3D
:102B9000002851D04FF0FF30B5E7434A1268117951
:102BA000414A526810786B460122FEF731FF10B19E
:102BB0004FF0FF30A7E73C48807A00F0010028B1D1
:102BC0009DF8000040F02000009004E09DF8000017
:102BD00020F020000090344A12681179324A52687D
:102BE00010786B460122FEF7B1FE10B14FF0FF30B6
:102BF00089E70320FDF7C2FB2B4890F8220010B1B3
:102C00008020009001E000200090274890F82300E9
:102C100020B19DF8000040F030000090224A126878
:102C2000117D214A526810786B460122FEF78EFE14
:102C300010B14FF0FF3066E71B488474002062E754
:102C400008B51948807A10B94FF0FF3008BD002050
:102C50000090154A1268D17B134A526810786B466F
:102C60000122FEF773FE10B14FF0FF30EEE70E4A7F
:102C7000126851790C4A526810786B460122FEF7AF
:102C800065FE10B14FF0FF30E0E7074A1268117996
:102C9000054A526810786B460122FEF757FE28B1AC
:102CA0004FF0FF30D2E70000F4000020F74890F822
:102CB0002400002850D00C200090F44A12681179AA
:102CC000F24A526810786B460122FEF73FFE10B1BF
:102CD0004FF0FF30BAE7C0200090EC48807A00F057
:102CE000010020B19DF8000040F020000090E74A6C
:102CF00012681179E54A526810786B460122FEF796
:102D000025FE10B14FF0FF30A0E7E048407C10B145
:102D10000220009001E000200090DC4A1268D17B84
:102D2000DA4A526810786B460122FEF70FFE10B1A6
:102D30004FF0FF308AE700200090D44A12685179A2
:102D4000D24A526810786B460122FEF7FFFD002838
:102D500052D04FF0FF3079E704200090CB4A126840
:102D60001179CA4A526810786B460122FEF7EEFDCF
:102D700010B14FF0FF3069E7C448807C20B9C348E8
:102D8000807A00F0010010B94020009001E060203E
:102D90000090BE4A12681179BC4A526810786B469E
:102DA0000122FEF7D3FD10B14FF0FF304EE7B748D8
:102DB000407C10B10120009001E000200090B34A57
:102DC0001268D17BB14A526810786B460122FEF737
:102DD000BDFD10B14FF0FF3038E7AC4A12685179B1
:102DE000AA4A52681078A94B10330122FEF7AEFDB3
:102DF00010B14FF0FF3029E7002027E770B50446F7
:102E0000002624F00104A14890F8240008B1002015
:102E100070BD9E48807A10B94FF0FF30F8E79B48AC
:102E2000057C807A2040994908740846007CA042BD
:102E300002D04FF0FF3600E0002614B99348007D21
:102E400018B10120FFF736FD02E00020FFF732FD48
:102E50003CB1FFF7F5FE20B18C4805744FF0FF3010
:102E6000D6E73046D4E738B504468848807A10B9AA
:102E70004FF0FF3038BDBC2C02DB0120009015E084
:102E8000622C02DB0220009010E02A2C02DB0320DF
:102E900000900BE0142C02DB0420009006E00A2CCA
:102EA00002DB0520009001E0062000907748C07A00
:102EB0009DF80010884201D10020DBE7734A1268B8
:102EC0009178724A526810786B460122FEF73EFDF7
:102ED00010B14FF0FF30CDE79DF800106B48C17284
:102EE0000020C7E738B50446282C02DD4FF0FF303C
:102EF00038BDDCB90020FFF767FD00208DF8000029
:102F000007208DF80100614A1268917C5F4A52687F
:102F100010786B460222FEF719FD10B14FF0FF301A
:102F2000E6E70021594801750020E1E70120FFF79D
:102F30004BFD20208DF80000012C06D100208DF8DB
:102F400001000520FFF78FFF17E0052C06DC0120AC
:102F50008DF801000520FFF786FF0EE0142C06DC3B
:102F600002208DF801000A20FFF77DFF05E0032015
:102F70008DF801001420FFF776FF9DF8010007216E
:102F800001EB8010C0B28DF80100404A1268917CBC
:102F90003E4A526810786B460222FEF7D7FC10B109
:102FA0004FF0FF30A4E708213848817200210173F7
:102FB000012101750020FFF721FF002098E738B5B7
:102FC00004463248807A10B94FF0FF3038BD2F48A0
:102FD00090F8240010B14FF0FF30F7E72B48007D48
:102FE00050B134B1282C04DCE0B2FFF77BFF0020A5
:102FF000ECE70020FFF776FF042C01DA042404E05C
:10300000B4F57A7F01DD4FF47A744FF47A7090FB57
:10301000F4F0401EC0B200901C4A126851781B4A5E
:10302000526810786B460122FEF790FC10B14FF009
:10303000FF30CBE79DF80000401C4FF47A7191FB04
:10304000F0F081B21148C1810146C9894810FFF7EB
:103050000AFF0020BAE738B504460C48807A10B958
:103060004FF0FF3038BD022C06D0042C07D0082CBE
:1030700008D0102C0FD10BE0002000900EE00820AB
:1030800000900BE01020009008E00000F400002009
:103090001820009002E04FF0FF30E3E700BFF9484E
:1030A000407A9DF80010B0EBE10F01D10020D9E784
:1030B000F44A1268D179F34A526810786B460122BB
:1030C000FEF744FC10B14FF0FF30CBE79DF8000055
:1030D000C110EC4841720020C4E738B50446E94805
:1030E000807A10B94FF0FF3038BDFA2C09D0B4F512
:1030F000FA7F09D0B4F57A7F09D0B4F5FA6F0CD114
:1031000008E0002000900BE00820009008E010206C
:10311000009005E01820009002E04FF0FF30E3E758
:1031200000BFD848007A9DF80010B0EBE10F01D144
:103130000020D9E7D34A12689179D24A52681078B0
:103140006B460122FEF702FC10B14FF0FF30CBE7D7
:103150009DF80000C010CB4908720020C4E71CB5E0
:1031600080208DF80000C74A1268917CC54A5268D9
:1031700010786B460122FEF7E9FB10B14FF0FF30EB
:103180001CBD6420FDF7FAF800208DF80000BD4A50
:103190001268917CBB4A526810786B460122FEF798
:1031A000D5FB10B14FF0FF30EAE7B64A1268917DC7
:1031B000B44A526810786B460622FEF729FC10B11B
:1031C0004FF0FF30DCE79DF80500C007400F9DF889
:1031D000031001F0010140EA41009DF8011001F0E7
:1031E000010140EA010494B1012C03D10121A54859
:1031F000C17431E0022C03D10021A248C1742BE03C
:103200002146A1A003F030FA4FF0FF30B8E79D4A05
:103210001268D1789B4A526810786B460122FEF7FB
:10322000F7FB10B14FF0FF30AAE79DF8000000F067
:103230000F042CB99E4803F017FA4FF0FF309FE7B8
:10324000042C06D19BA003F00FFA01218D48C17414
:1032500002E000218B48C174FF218A488172FF205F
:1032600088490872FF2187484172C1724FF6FF7189
:10327000C181FF21017481740121017380F8221042
:10328000002180F8231041750175163001604160FE
:103290008160163880F8241080F82510C1844FF41E
:1032A000FA60FFF71AFF10B14FF0FF3068E7022015
:1032B000FFF7D1FE10B14FF0FF3061E72A20FFF792
:1032C000D2FD10B14FF0FF305AE73220FFF777FE02
:1032D00010B14FF0FF3053E70020FFF78FFD10B122
:1032E0004FF0FF304CE70020FFF706FC10B14FF025
:1032F000FF3045E70020FFF79AFB002040E77047CA
:103300007CB504460D465F48807A00F0700010B925
:103310004FF0FF307CBD5B4A1268117B594A5268FE
:1033200010786B460622FEF773FB10B14FF0FF30AA
:10333000F0E79DF801009DF8001040EA012000B27E
:1033400020809DF803009DF8021040EA012000B2A1
:1033500060809DF805009DF8041040EA012000B24D
:10336000A08015B12846FFF7CAFF0020D2E77CB540
:1033700004460D464348807A00F0080010B94FF02B
:10338000FF307CBD3F4A1268517B3E4A526810783C
:103390006B460622FEF73CFB10B14FF0FF30F0E722
:1033A0009DF801009DF8001040EA012000B2208045
:1033B0009DF803009DF8021040EA012000B26080F1
:1033C0009DF805009DF8041040EA012000B2A0809D
:1033D00015B12846FFF793FF0020D2E72DE9FE4FF5
:1033E00005460C462748807A18B94FF0FF30BDE8F3
:1033F000FE8F244A1268917B224A5268107802ABF1
:103400000222FEF705FB10B14FF0FF30EFE79DF809
:1034100009009DF8081040EA012006B214B12046C8
:10342000FFF76DFF17494968C88805F0BDFB1549CE
:1034300001904968B1F9080005F09EFB83463046CB
:1034400005F09AFB5946009005F0FEFC8246019972
:1034500005F060FA81461F4905F0EEF980464FF00D
:103460008F4105F0E9FB074605F04AFB2860002084
:10347000BDE710B588B004461CB94FF0FF3008B066
:1034800010BD29E0F4000020556E737570706F72E6
:1034900074656420736F6674776172652070726FF3
:1034A00064756374207265762025642E0A0000001E
:1034B00048A8000848616C662073656E736974697A
:1034C00076697479207061727420666F756E642EEF
:1034D0000D0A000000000C42206830B9606820B975
:1034E000A06810B9002008B010BDFA4949680878F2
:1034F00006AB03221146FEF78BFA10B14FF0FF30F6
:10350000F1E79DF81800082101EB201000F00F00F2
:10351000ADF800009DF8190001EB201000F00F003D
:10352000ADF802009DF81A0001EB201000F00F002A
:10353000ADF8040020684100BDF90000403091FB67
:10354000F0F000B2ADF8100060684100BDF9020073
:10355000403091FBF0F000B2ADF81200A0684100DD
:10356000BDF90400403091FBF0F000B2ADF814005A
:10357000D8494968087806AB06221146FEF748FA92
:1035800010B14FF0FF30AEE79DF819009DF818100C
:1035900040EA012000B2ADF808009DF81B009DF83C
:1035A0001A1040EA012000B2ADF80A009DF81D0093
:1035B0009DF81C1040EA012000B2ADF80C00BDF8E7
:1035C0001000BDF80810084400B2ADF81000BDF8B6
:1035D0001200BDF80A10084400B2ADF81200BDF8A0
:1035E0001400BDF80C10084400B2ADF81400BDF88A
:1035F0001000000A8DF81800BDF81000C0B28DF858
:103600001900BDF81200000A8DF81A00BDF812006A
:10361000C0B28DF81B00BDF81400000A8DF81C0024
:10362000BDF81400C0B28DF81D00AA494968087899
:1036300006AB06221146FEF789F910B14FF0FF30B4
:1036400051E700204FE70146A248007A30B1012837
:1036500007D0022809D003280FD10AE0FA200880F9
:103660000EE04FF4FA7008800AE04FF47A70088098
:1036700006E04FF4FA60088002E00020088000BFF6
:1036800000BF0020704701469248407A30B10128BF
:1036900007D0022808D003280CD108E002200870C7
:1036A0000BE00420087008E00820087005E01020F6
:1036B000087002E04FF0FF30704700BF8548C07CC3
:1036C00018B108784006000E08700020F4E70146A3
:1036D0008048C07A082817D2DFE800F01704070AEC
:1036E0000D101318BC20088013E06220088010E041
:1036F0002A2008800DE0142008800AE00A200880B3
:1037000007E00520088004E000BF00BF002008801B
:1037100000BF00BF0020704701466E4890F82400AB
:1037200010B14FF0FF3070476A48C0890880002010
:10373000F9E7014600200880401E704701464FF01F
:10374000FF30704701466348007A30B1012807D046
:10375000022808D003280CD108E05F4808600BE07D
:103760005E48086008E05E48086005E05D48086063
:1037700002E04FF0FF30704700BF0020FBE701463A
:103780005448407A30B1012808D002280AD00328D2
:1037900010D10BE04FF4804008800EE041F69C70A1
:1037A00008800AE04FF48050088006E04FF4006083
:1037B000088002E04FF0FF30704700BF4548C07CF2
:1037C00010B10888401008800020F5E70146414804
:1037D000007C08700020704701463E48807A10B196
:1037E0000120087001E0002008700020704738B503
:1037F00004463848807A10B94FF0FF3038BD354A5A
:103800001268117C334A526810786B460222FEF728
:10381000FFF810B14FF0FF30F0E79DF801009DF880
:10382000001040EA012000B220800020E6E72DE9E8
:10383000FE4F0746884692461D46DDF830B000260A
:103840000024244890F8240010B1601EBDE8FE8FCB
:10385000002028701F48807A10B94FF0FF30F5E73C
:103860001C48007C10B94FF0FF30EFE71948007C8E
:1038700000F0400008B1B01CC6B21648007C00F051
:10388000200008B1B01CC6B21248007C00F0100045
:1038900008B1B01CC6B20F48007C00F0080008B1A7
:1038A000B01DC6B20B4A1268917A0A4A5268107863
:1038B0006B460222FEF7ACF810B14FF0FF30C5E7BF
:1038C0009DF801009DF8001040EA0129B1450BDA8E
:1038D0000020BBE7F4000020000003430000834207
:1038E0003333034233338341FC4840684088B9EBAB
:1038F000600F17DDF94A1268517CF84A5268107857
:103900006B460122FEF784F810B14FF0FF309DE7BF
:103910009DF8000000F0100020B1FFF791F96FF062
:10392000010093E75046FFF7EAFCEC4A1268D17AAF
:10393000EA4A526810786B463246FEF769F810B1D1
:103940004FF0FF3082E799FBF6F0401E8BF8000045
:1039500000202870B4422AD0E048007C00F0080023
:1039600028B3601C1DF800001DF8041040EA012077
:1039700000B2A8F80000E01C1DF80010A01C1DF803
:10398000000041EA002000B2A8F80200601D1DF806
:103990000010201D1DF8000041EA002000B2A8F828
:1039A0000400287840F008002870A01D84B2B442BA
:1039B00013D0CA48007C00F0400070B1601C1DF8B4
:1039C00000001DF8041040EA012000B23880287879
:1039D00040F040002870A01C84B2B44213D0BF480D
:1039E000007C00F0200070B1601C1DF800001DF884
:1039F000041040EA012000B27880287840F02000CE
:103A00002870A01C84B2B44213D0B448007C00F0EB
:103A1000100070B1601C1DF800001DF8041040EA91
:103A2000012000B2B880287840F010002870A01C57
:103A300084B200200AE7F8B504460F461646A748A8
:103A400090F8240010B94FF0FF30F8BDA348807AF9
:103A500010B94FF0FF30F8E7A04A1268917A9F4AF8
:103A6000526810786B460222FDF7D2FF10B14FF07A
:103A7000FF30EAE79DF801009DF8001040EA0125BB
:103A8000A54203DA00203070401EDEE7934840680C
:103A90004088B5EB600F17DD904A1268517C8F4A61
:103AA000526810786B460122FDF7B2FF10B14FF05B
:103AB000FF30CAE79DF8000000F0100020B1FFF7CA
:103AC000BFF86FF00100C0E7E2B2844B1B68D97AFF
:103AD000824B5B6818783B46FDF79AFF10B14FF0B8
:103AE000FF30B2E795FBF4F0401E30700020ACE7E9
:103AF00001467A4880F82210002070477CB50546C0
:103B000076494968087801AB04220D21FDF780FF52
:103B100008B107207CBD9DF80700C0F301109DF897
:103B2000041001F0E00140EAE1008DF800009DF88A
:103B30000700C0F381009DF8051001F0E00140EAA4
:103B4000E1008DF801009DF8070000F003009DF8EA
:103B5000061001F0E00140EAE1008DF802000024C7
:103B60001CE01DF8040018B9002045F8240013E0FB
:103B70005B4845F8240006E055F82400594905F053
:103B80005BF845F824001DF80400401EC0B20DF893
:103B900004000028F0D100BF601CC4B2032CE0DB9D
:103BA0000020B7E72DE9FE4F06460F460025684680
:103BB000FFF7A4FF002442E056F8240057F8241031
:103BC000A0EB010ABAF1000F01DB514601E0CAF196
:103BD0000001084604F0D0FF83464FF08F4104F007
:103BE00099FE80465DF82400002104F055FF16D0B0
:103BF0005DF82410404604F08DFE82464FF07E5161
:103C000005F022F9814629F0004A3748416A5046BA
:103C100005F0DEF812D20120A04005430EE0324844
:103C2000C169404604F0D4FF05D32F48016A4046DD
:103C300005F0CEF802D20120A0400543641C032CFD
:103C4000BADB2846BDE8FE8F2DE9FC5F06460F462D
:103C5000002522494968087801AB03220D21FDF7B0
:103C6000D7FE10B10720BDE8FC9F9DF8040000F0CE
:103C70001F008DF804009DF8050000F01F008DF86E
:103C800005009DF8060000F01F008DF806000024D6
:103C900062E056F8240057F82410A0EB010BBBF1AA
:103CA000000F01DB594601E0CBF10001084604F0AA
:103CB00063FF4FF08F41009004F02CFE814601A875
:103CC000005DC0B30849086804F06EFF834659469A
:103CD000064804F01FFE80460FE00000F4000020BC
:103CE0007B14AE3E1D5A843FB09A000800B04C458C
:103CF000FE49404604F0A0FF804601A8005D401E3A
:103D0000C0B201A908550028F2D14146484604F046
:103D100001FE83464FF07E5105F096F882462AF068
:103D2000004BF3488169584605F052F813D2012040
:103D3000A04005430FE0FFE7ED480169484604F065
:103D400047FF05D3EA484169484605F041F802D2E9
:103D50000120A0400543641C032C9ADB284682E71F
:103D60002DE9F04F87B005460C46914601208DF8AD
:103D7000100000208DF81100DE4A1268917CDD4AA7
:103D80005268107804AB0222FDF7E0FD20B14FF03D
:103D9000FF3007B0BDE8F08FC820FCF7EFFA002035
:103DA0008DF81000D34A1268D17BD24A526810783D
:103DB00004AB0122FDF7CAFD10B14FF0FF30E8E778
:103DC000CC4A12685179CB4A5268107804AB012270
:103DD000FDF7BCFD10B14FF0FF30DAE7C54A1268BD
:103DE000917CC44A5268107804AB0122FDF7AEFD05
:103DF00010B14FF0FF30CCE7BE4A1268D17DBD4A0A
:103E00005268107804AB0122FDF7A0FD10B14FF00D
:103E1000FF30BEE7B74A12681179B64A5268107887
:103E200004AB0122FDF792FD10B14FF0FF30B0E777
:103E30000C208DF81000AF4A12681179AD4A526813
:103E4000107804AB0122FDF781FD10B14FF0FF3077
:103E50009FE70F20FCF792FAA648806A407A8DF817
:103E60001000A44A12689178A24A5268107804ABF4
:103E70000122FDF76BFD10B14FF0FF3089E79D483F
:103E8000806A007A8DF810009A4A12685178994A2F
:103E90005268107804AB0122FDF758FD10B14FF0C5
:103EA000FF3076E7B9F1000F07D09248806A807A38
:103EB00040F0E0008DF8100004E08E48806A807ABF
:103EC0008DF810008B4A126891798A4A52681078EE
:103ED00004AB0122FDF73AFD10B14FF0FF3058E777
:103EE000B9F1000F07D08348806AC07A40F0E00043
:103EF0008DF8100003E07E48C07A8DF810007D4AEE
:103F00001268D1797B4A5268107804AB0122FDF720
:103F10001DFD10B14FF0FF303BE7B9F1000F02D0AB
:103F2000C820FCF72BFA40208DF81000714A126867
:103F30001179704A5268107804AB0122FDF706FD32
:103F400010B14FF0FF3024E778208DF81000694A57
:103F500012685179674A5268107804AB0122FDF764
:103F6000F5FC10B14FF0FF3013E761498889FCF789
:103F700005FA00208DF810005E4A126851795D4AFA
:103F80005268107804AB0122FDF7E0FC10B14FF04D
:103F9000FF30FEE6574A1268917A564A5268107806
:103FA00004AB0222FDF734FD10B14FF0FF30F0E614
:103FB0009DF811009DF8101040EA012B0C209BFB8E
:103FC000F0F0C6B20020A86068602860A060606061
:103FD0002060824665E0474A1268D17A454A5268B5
:103FE000107804AB0C22FDF713FD10B14FF0FF3039
:103FF000CFE69DF811009DF8101040EA012000B2B4
:10400000ADF808009DF813009DF8121040EA012059
:1040100000B2ADF80A009DF815009DF8141040EAB2
:10402000012000B2ADF80C00BDF90810206808446A
:104030002060BDF90A10606808446060BDF90C108A
:10404000A0680844A0609DF817009DF8161040EA8B
:10405000012000B2ADF800009DF819009DF818107D
:1040600040EA012000B2ADF802009DF81B009DF867
:104070001A1040EA012000B2ADF80400BDF90010AA
:10408000286808442860BDF9021068680844686020
:10409000BDF90410A8680844A8600AF1010000F006
:1040A000FF0AB24597DB1248D0F800C02868C11754
:1040B000090441EA1041070462460023384602F031
:1040C000AEFA32460023CDE9020102F0A8FA2860D8
:1040D0000748D0F800C06868C117090441EA1041D8
:1040E000070462460023384606E0000054E3853F9B
:1040F000B09A0008F400002002F091FA3246002342
:10410000CDE9020102F08BFA6860FE48D0F800C0E9
:10411000A868C117090441EA104107046246002358
:10412000384602F07CFA32460023CDE9020102F063
:1041300076FAA860F348D0F804C02168C8170004D4
:1041400040EA11480F04624600233846414602F017
:1041500066FA32460023CDE9020102F060FA2060DF
:10416000E848D0F804C06068C117090441EA10416A
:10417000070462460023384602F051FA3246002313
:10418000CDE9020102F04BFA6060DE48D0F804C0CD
:10419000A068C117090441EA1041070462460023E0
:1041A000384602F03CFA32460023CDE9020102F023
:1041B00036FAA060A068002804DDA068A0F5803071
:1041C000A06003E0A06800F58030A0600020E0E57A
:1041D00038B50446CC4890F82400A04201D1002014
:1041E00038BD24B3C84890F8250010B94FF0FF300F
:1041F000F6E70020FEF75EFB0020FEF77DFCC249DB
:10420000C88CFEF7DCFE00200090BF4949680878A2
:104210006B4601222321FDF799FB0121BA4880F862
:1042200024100120FEF746FBFEF70AFD13E00020F4
:10423000FEF740FBB448007C0090B3494968087819
:104240006B4601222321FDF781FB0021AE4880F857
:104250002410FEF7F5FC0020C2E72DE9F04F8DB0E9
:1042600083460F4602200C90A74890F8240020B106
:104270000020FFF7ADFF012600E0002603A8FFF7AE
:10428000E2F905A8FFF7FFF901A8FFF720FA02A855
:10429000FFF742FA9C4890F80AA004A8FFF796FAA4
:1042A000002407E0002239465846FFF759FD00B9BF
:1042B00002E0641C022CF5DB00BF022C01D10025BA
:1042C00028E0002407E0012206A909A8FFF748FD1D
:1042D00000B902E0641C022CF5DB00BF022C01D106
:1042E000002517E006A93846FFF75CFC00F0FF0840
:1042F00009A95846FFF7A8FC00F0FF090025B9F10D
:10430000000F01D145F00105B8F1000F01D145F0D2
:10431000020500BFFF207C490872FF217A484172E4
:10432000C1724FF6FF71C181FF21817201740121B9
:104330000173BDF80C00FEF7D0FE9DF81400FEF7E7
:104340008AFEBDF80400FEF78EFDBDF80800FEF7FA
:1043500036FE5046FEF76BFB9DF81000FEF74EFD53
:1043600016B10120FFF734FF28460DB0BDE8F08FED
:10437000F8B504460D46164616B94FF0FF30F8BDA5
:104380006148807A10B94FF0FF30F8E720128DF8BD
:104390000000E0B28DF801009DF8010028445A4960
:1043A00049684989884202DD4FF0FF30E7E7564A05
:1043B0001268117E544A526810786B460222FDF74B
:1043C000C5FA10B14FF0FF30D9E7EAB24E4B1B6887
:1043D000597D4D4B5B6818783346FDF7B7FA10B13D
:1043E0004FF0FF30CBE70020C9E7F8B504460D4693
:1043F000164616B94FF0FF30F8BD4348807A10B921
:104400004FF0FF30F8E720128DF80000E0B28DF891
:1044100001009DF8010028443B49496849898842C8
:1044200002DD4FF0FF30E7E7374A1268117E364A67
:10443000526810786B460222FDF788FA10B14FF0EF
:10444000FF30D9E7EAB2304B1B68597D2E4B5B68D1
:1044500018783346FDF7DCFA10B14FF0FF30CBE7A8
:104460000020C9E72DE9F04385B005460E46904689
:104470009946254890F8250020B14FF0FF3005B04F
:10448000BDE8F08316B94FF0FF30F8E7002423E0D1
:10449000281B102801DD102000E0281B87B23219EC
:1044A00039462046FFF764FF10B14FF0FF30E6E7D2
:1044B00001AA39462046FFF798FF10B14FF0FF30B0
:1044C000DDE730193A4601A902F048F910B16FF062
:1044D0000100D4E7E01984B2AC42D9DB4FEA2820CE
:1044E0008DF8000008F0FF008DF80100064A126800
:1044F000917E054A526810786B460222FDF726FA33
:1045000038B103E0B09A0008F40000204FF0FF300B
:10451000B5E701218A4880F82510A0F826900020F0
:10452000ADE70146864890F82400087000207047E7
:1045300002464FF0FF30704701464FF0FF307047A2
:10454000F8B505460F461446002C70D0B5F5FF5F50
:1045500001DDFF2605E0202D01DA012601E0C5F38B
:10456000471607B90127282C02DD4FF0FF30F8BDB0
:104570007348407D28BB724890F8240038B1002071
:10458000FFF726FE01216E4880F8201003E000218D
:104590006B4880F820106A481630FFF754F86848D6
:1045A0001830FFF770F866481A30FFF790F8644843
:1045B0001C30FFF7B1F86248817A81771F30FFF72E
:1045C00005F90020FEF776F90020FEF78BFC0020AD
:1045D0008DF800005A4A12689178594A526810784A
:1045E0006B460122FDF7B2F910B14FF0FF30BEE784
:1045F00040208DF80000524A1268D17B504A526820
:1046000010786B460122FDF7A1F900B165E08DF845
:1046100000608DF801704A4A1268117A484A52685F
:1046200010786B460222FDF791F908B155E047E09A
:104630000520FBF7A3FE4248407A072101EBC000AA
:10464000C0B28DF800003E4A1268D1793C4A5268E7
:1046500010786B460122FDF779F900B13DE020208A
:104660008DF80000012C03D100208DF801000EE030
:10467000052C03DC01208DF8010008E0142C03DC7C
:1046800002208DF8010002E003208DF801009DF862
:104690000100072101EB8010C0B28DF80100284A0B
:1046A0001268917C264A526810786B460222FDF708
:1046B0004DF900B111E0012121484175002056E774
:1046C0001F4A1632002103E0505C00B105E0491C8E
:1046D0000C29F9D34FF0FF3049E7FF201849087241
:1046E000FF2117484172C1724FF6FF71C181FF214E
:1046F00081720174012101730146887FFEF797F9E9
:104700000F49C88AFEF7E9FC0D49087EFEF7A3FCB5
:104710000B49488BFEF7A7FB0949888BFEF74FFC36
:104720000749C87FFEF76AFB054890F8200010B1E2
:104730000120FFF74DFD002101484175002016E7DB
:10474000F400002010B5C8234FF48062F74940F60A
:10475000F630FFF787FE10BD10B586B00446F4A012
:1047600000680390F3A000680290F3A00068019035
:10477000F2A00068009004F0030003A9085C8DF823
:10478000140003A8C4F3C101405C8DF8150003A810
:10479000C4F38111405C8DF8160004F0030002A9F7
:1047A000085C8DF8100002A8C4F3C101405C8DF8CC
:1047B000110002A8C4F38111405C8DF8120005AA13
:1047C000032140F22640FFF7D3FD18B14FF0FF3030
:1047D00006B010BD04AA032140F22A40FFF7C8FD2D
:1047E00010B14FF0FF30F3E7019805900098049066
:1047F00004F0040058B19DF8140040F001008DF859
:1048000014009DF8100040F001008DF8100004F035
:10481000200058B19DF8150040F001008DF81500FA
:104820009DF8110040F001008DF8110004F4807033
:1048300058B19DF8160040F001008DF816009DF863
:10484000120040F001008DF8120005AA03214FF478
:104850008860FFF78DFD10B14FF0FF30B8E704AA74
:10486000032140F23140FFF783FD10B14FF0FF30DC
:10487000AEE7B34804810020AAE71FB50446B0485C
:10488000007A00F0030054F820000190AC48007A50
:1048900000F0040010B1019840420190A848007A4D
:1048A000C0F3C10054F820000290A548007A00F03F
:1048B000200010B1029840420290A148007AC0F353
:1048C000811054F8200003909D48008900F4807006
:1048D00010B10398404203909A49019880FB01016E
:1048E000800F40EA810001909649029880FB0110F8
:1048F000820042EA917002909249039880FB011075
:10490000820042EA917003900198000E8DF8000039
:104910000198000C8DF801000198000A8DF8020042
:104920000198C0B28DF803006A4604214FF47470F8
:10493000FFF71EFD18B14FF0FF3004B010BD029814
:10494000000E8DF800000298000C8DF8010002980E
:10495000000A8DF802000298C0B28DF803006A4682
:1049600004214FF47570FFF703FD10B14FF0FF30D5
:10497000E3E70398000E8DF800000398000C8DF813
:1049800001000398000A8DF802000398C0B28DF868
:1049900003006A4604214FF47670FFF7E9FCCCE788
:1049A00070B588B0064601A8FEF7E9FEBDF8040020
:1049B0000021C90341EA5045C4036148007A00F070
:1049C000030056F8200005905D48007A00F00400CE
:1049D00010B10598404205905948007AC0F3C100D3
:1049E00056F8200006905648007A00F0200010B1DA
:1049F0000698404206905248007AC0F3811056F85B
:104A0000200007904E48008900F4807010B107988C
:104A1000404207900598C117A0FB042301FB043115
:104A200000FB0510810041EA927005900698C117BD
:104A3000A0FB042301FB043100FB0510810041EAC7
:104A4000927006900798C117A0FB042301FB043164
:104A500000FB0510810041EA927007900598000E56
:104A60008DF808000598000C8DF809000598000ADB
:104A70008DF80A000598C0B28DF80B000698000E5C
:104A80008DF80C000698000C8DF80D000698000AB1
:104A90008DF80E000698C0B28DF80F000798000E32
:104AA0008DF810000798000C8DF811000798000A87
:104AB0008DF812000798C0B28DF8130002AA0C21DD
:104AC0004FF42570FFF754FC08B070BD30B585B0C9
:104AD00004461DA207CA02AB07C3C82C03DD4FF072
:104AE000FF3005B030BDC82090FBF4F0401E85B209
:104AF000280A8DF80000E8B28DF801006A4602210C
:104B000040F21620FFF734FC10B14FF0FF30E8E719
:104B100002AA0C2140F6C120FFF72AFC10B14FF089
:104B2000FF30DEE7064884810020DAE7D89A0008E3
:104B30004CCD6C000CC92C0036567600264666001B
:104B4000F405002009E3CA02FEF2ABC4AAF1DFDFDC
:104B5000BBAFDFDF0146FC4880890880002070473A
:104B60002DE9FC4706460F4606F0070010B1B7F5E1
:104B7000C86F03DD4FF0FF30BDE8FC87384604F016
:104B800013F88146F14903F0C5FE80466846FEF7FA
:104B90007AFD9DF80000022806D0042816D00828C7
:104BA00026D0102848D135E04FF08D41404604F022
:104BB00043F8814603F0C0FF84B2E549404604F063
:104BC0003BF8814603F0B8FF85B238E04FF08C41E6
:104BD000404604F031F8814603F0AEFF84B2DD496F
:104BE000404604F029F8814603F0A6FF85B226E08E
:104BF0004FF08B41404604F01FF8814603F09CFFC4
:104C000084B2D549404604F017F8814603F094FF7A
:104C100085B214E04FF08A41404604F00DF8814619
:104C200003F08AFF84B2CD49404604F005F881467E
:104C300003F082FF85B202E04FF0FF309CE700BF37
:104C400020128DF80400E0B28DF8050028128DF8CE
:104C50000600E8B28DF8070006F00100A0B101AA35
:104C600002214FF4EA70FFF783FB10B14FF0FF30E1
:104C700082E70DF1060202214FF49270FFF778FBF4
:104C800010B14FF0FF3077E706F00200A0B101AAA3
:104C900002214FF4EC70FFF76BFB10B14FF0FF30C7
:104CA0006AE70DF1060202214FF49470FFF760FBF2
:104CB00010B14FF0FF305FE706F00400A0B101AA89
:104CC00002214FF4EE70FFF753FB10B14FF0FF30AD
:104CD00052E70DF1060202214FF49670FFF748FBF0
:104CE00010B14FF0FF3047E7002045E738B50446E4
:104CF0000020009004F0010020B19DF8000040F079
:104D00003000009004F0020020B19DF8000040F057
:104D10000C00009004F0040020B19DF8000040F069
:104D2000030000906A4601214FF4A470FFF720FBB6
:104D300038BD38B50446012C01DA012402E0042C08
:104D400000DD0424601EC0B200906A46012140F2DA
:104D50004F10FFF70DFB38BD38B50446052094FB16
:104D6000F0F085B228128DF80000E8B28DF801004D
:104D70006A4602214FF4EF70FFF7FAFA38BD38B5F2
:104D80000446052094FBF0F085B228128DF800004F
:104D9000E8B28DF801006A4602214FF4ED70FFF78A
:104DA000E7FA38BDF8B505460E464FF47A7095FB24
:104DB000F0F000FB06F4200E8DF80000200C8DF8BA
:104DC0000100200A8DF80200E0B28DF803006A4667
:104DD00004214FF4AE70FFF7CBFAF8BD38B50446A6
:104DE000052094FBF0F084B220128DF80000E0B2B0
:104DF0008DF801006A4602214FF4AD70FFF7B8FA52
:104E000038BD38B50446052094FBF0F084B220127A
:104E10008DF80000E0B28DF801006A4602214FF4DF
:104E2000AC70FFF7A5FA38BD38B5044614B94FF099
:104E3000FF3038BD6A4604214FF45870FFF7D5FAA9
:104E400010B14FF0FF30F4E79DF8000000069DF828
:104E5000011040EA01409DF8021040EA01209DF84F
:104E60000310084320600020E3E738B50446200E15
:104E70008DF80000200C8DF80100200A8DF802004A
:104E8000E0B28DF803006A4604214FF45870FFF732
:104E90006FFA38BD38B5044614B94FF0FF3038BD4D
:104EA0006A4604214FF47170FFF79FFA10B14FF07A
:104EB000FF30F4E79DF8000000069DF8011040EA7D
:104EC00001409DF8021040EA01209DF803100843BC
:104ED00000EB8000800020600020E0E738B5044649
:104EE0001420B4FBF0F4200E8DF80000200C8DF897
:104EF0000100200A8DF80200E0B28DF803006A4636
:104F000004214FF47170FFF733FA38BD38B5044609
:104F100064B120208DF8000028208DF80100302099
:104F20008DF8020038208DF8030004E0A32204214C
:104F3000684601F03FFC6A46042140F69E20FFF7D8
:104F400017FAFDF77DFE38BDF40500200000484348
:104F5000000040460000C045000040450000C0443D
:104F600038B5044664B1C0208DF80000C2208DF829
:104F70000100C4208DF80200C6208DF8030004E073
:104F80008B220421684601F015FC6A46042140F694
:104F90009820FFF7EDF9FDF753FE38BD3EB5044606
:104FA0006CB1FDA1D1E900208968CDE90020029112
:104FB0006A4609214FF49760FFF7DAF93EBDF9A27E
:104FC000D2E900109268CDE9010200916A460921F8
:104FD0004FF49760FFF7CCF9F0E73EB504460220A6
:104FE0008DF80000CA208DF80100E3208DF8020042
:104FF00009208DF803006A4604216820FFF7B8F9FC
:10500000A3208DF8000004F0400048B1C0208DF8C6
:105010000100C8208DF80200C2208DF8030006E0D0
:10502000A3208DF801008DF802008DF8030004F430
:10503000C07048B1C4208DF80400CC208DF8050064
:10504000C6208DF8060006E0A3208DF804008DF838
:1050500005008DF80600A3208DF807008DF80800E4
:105060008DF809006A460A2140F6A720FFF780F96B
:1050700004F0030018B120208DF8000002E0D820D1
:105080008DF800006A46012140F6B620FFF770F95E
:1050900004F0200018B10120FFF780FF02E000209B
:1050A000FFF77CFF04F4C07008B304F4807060B1B3
:1050B000B2208DF800008B208DF80100B6208DF80D
:1050C00002009B208DF803000BE0B0208DF800005B
:1050D00080208DF80100B4208DF8020090208DF81A
:1050E00003006A46042140F6A220FFF741F904F0CC
:1050F000010020B3F8208DF800006A4601214FF42A
:105100000B60FFF735F9FA210720FFF729FD07208B
:10511000FFF7ECFD0120FFF70CFE6420FFF71CFEFB
:105120004FF4FA70FFF72BFEC821A148FFF73AFEB3
:105130002820FFF753FE0A20FFF763FE08E0D8207F
:105140008DF800006A4601214FF40B60FFF710F95B
:1051500004F0020018B1D9208DF8000002E0D82038
:105160008DF800006A46012140F23D70FFF700F91A
:1051700004F0040018B10120FFF7F2FE02E0002065
:10518000FFF7EEFE04F0100018B10120FFF7BEFE9D
:1051900002E00020FFF7BAFE44F00800854948818C
:1051A000FDF74EFD00208349887304F0400018B1DC
:1051B0000846807B801D887304F4C07020B17D4850
:1051C000807B801D7B49887304F0140020B17948EE
:1051D000807B10307749887304F0030020B1754854
:1051E000807B001D7349887300203EBD01467148D5
:1051F00040890880002070472DE9F0410446E0789E
:1052000000F0C006E07800F03F05607800F0010093
:1052100098B1EF102846E91705EB5171C910A5EBBD
:10522000C101491C01F0FF086248006820B16148D3
:10523000414602683846904700BF607800F0080099
:1052400030B15C48406818B1B0115A4A516888477B
:105250000020BDE8F08110B586B0044656A207CA0A
:1052600003AB07C357A207CA8DE80700012C09D07A
:10527000022C0ED103AA0B2140F68220FFF778F80A
:1052800006B010BD6A460B2140F68220FFF770F889
:10529000F6E74FF0FF30F3E72DE9F04F8DB007460A
:1052A000884615469946DDE9166B002400203080BB
:1052B0004049887B5A4605A9FEF7BDFB18B1601E20
:1052C0000DB0BDE8F08F3B48807A00F01400002854
:1052D00061D09DF8140000069DF8151040EA0140C9
:1052E0009DF8161040EA01209DF817100843286029
:1052F0009DF8180000069DF8191040EA01409DF83D
:105300001A1040EA01209DF81B10084368609DF8C0
:105310001C0000069DF81D1040EA01409DF81E107B
:1053200040EA01209DF81F100843A8609DF8200066
:1053300000069DF8211040EA01409DF8221040EA45
:1053400001209DF823100843E86004F11000C4B266
:10535000286800140190686800140290A86800147E
:105360000390E8680014049001984043029901FBFF
:105370000100039901FB0100049901FB010ABAF144
:10538000706F02DBBAF1885F22DDFDF759FC002067
:105390003080401E94E721E0B8AAB38DB4980D3553
:1053A0005D000000B8AAAAAAB088C3C5C700000063
:1053B00009E3CA02F4050020D8B1B9F38BA391B672
:1053C00009B4D900DAB1B9F38BA391B6DAB4DA0033
:1053D000B6F9000040F48070308000BF3448807A15
:1053E00000F0400020B305A9601C085C095D40EA9C
:1053F000012000B2A8F8000005A9E01C095C05AA7C
:10540000A01C105C41EA002000B2A8F8020005A927
:10541000601D095C201D105C41EA002000B2A8F864
:105420000400A01DC4B2B6F9000040F008003080AE
:105430001F48408900F4C07008B305A9601C085CCF
:10544000095D40EA012000B2388005A9E01C095C32
:1054500005AAA01C105C41EA002000B2788005A9D2
:10546000601D095C201D105C41EA002000B2B8807C
:10547000A01DC4B2B6F9000040F0700030800C48A6
:10548000807A00F0030018B105A90819FFF7B4FEEF
:105490004846FDF734FF002012E70146044801604A
:1054A000002070470146024841600020704700001C
:1054B000F4050020014691F90020002A01DD0020BA
:1054C0001EE091F90020002A01DA042018E091F989
:1054D0000120002A01DD012012E091F90120002ABB
:1054E00001DA05200CE091F90220002A01DD0220FA
:1054F00006E091F90220002A01DA062000E00720E8
:10550000704770B505462846FFF7D4FF0446E81CEF
:10551000FFF7D0FF44EAC00084B2A81DFFF7CAFF1E
:1055200044EA801084B2204670BD70B588B002A9EC
:1055300005A8FEF792FE0446072C3FD101A8FEF70E
:1055400001F9059803F018FB0646019903F074FB76
:10555000054603F0D5FA0590069803F00DFB0646C4
:10556000019903F069FB054603F0CAFA0690079813
:1055700003F002FB0646019903F05EFB054603F0CB
:10558000BFFA079005A8FFF778F96846FEF7F7F825
:10559000BDF80010029848430290BDF8001003982F
:1055A00048430390BDF8001004984843049002A8B3
:1055B000FFF7F6F9FEA001F057F800BF08B070BD84
:1055C0002DE9F04304460D46DDE90767002101207F
:1055D00041E0DFF800C43CF81080A0F1010CDFF8D6
:1055E000F49329F81C8009F1160C3CF81090A0F1F6
:1055F000010CDFF8E08308F1160828F81C9008F188
:10560000160C3CF81090A0F1010C08F1160828F8CF
:105610001C9008F1160C3CF81090A0F1010C08F158
:10562000160828F81C9008F1160C3CF81090A0F110
:10563000010C08F1160828F81C9008F1160C3CF82B
:105640001090A0F1010C08F1160828F81C9000F148
:10565000010C0CF0FF000A28BBDBDFF878C3ACF8C4
:105660001240ACF82850ACF83E20ACF85430ACF8FE
:105670006A60ACF880700021002008E0DFF854C3B5
:105680003CF910C0614400F1010C0CF0FF000A2845
:10569000F4DB4FF00A0C91FBFCFC0FFA8CFCDFF8FA
:1056A0003483A8F814C0002100200AE0DFF824C3E6
:1056B0000CF1160C3CF910C0614400F1010C0CF027
:1056C000FF000A28F2DB4FF00A0C91FBFCFC0FFAFA
:1056D0008CF8DFF800C3ACF82A80002100200AE033
:1056E000DFF8F0C20CF12C0C3CF910C0614400F161
:1056F000010C0CF0FF000A28F2DB4FF00A0C91FBC2
:10570000FCFC0FFA8CF8DFF8CCC2ACF8408000212A
:1057100000200AE0DFF8BCC20CF1420C3CF910C0DA
:10572000614400F1010C0CF0FF000A28F2DB4FF09D
:105730000A0C91FBFCFC0FFA8CF8DFF898C2ACF86D
:105740005680002100200AE0DFF888C20CF1580CD6
:105750003CF910C0614400F1010C0CF0FF000A2874
:10576000F2DB4FF00A0C91FBFCFC0FFA8CF8DFF82F
:1057700064C2ACF86C80002100200AE0DFF854C25B
:105780000CF16E0C3CF910C0614400F1010C0CF0FE
:10579000FF000A28F2DB4FF00A0C91FBFCFC0FFA29
:1057A0008CF8DFF830C2ACF88280BDE8F08338B501
:1057B0000446032302226B21D0200094FCF7F8F961
:1057C00038BD38B50446022304221B21D0200094A2
:1057D000FCF7EEF938BD38B50446022304221C213B
:1057E000D0200094FCF7E4F938BD10B504462346F8
:1057F00006226B21D020FCF710FA10BD10B5764BB5
:1058000001227521D020FCF761F97348007810BDA2
:1058100010B5FFF7F3FF682801D1012010BD00206B
:10582000FCE710B50446234605226A21D020FCF788
:10583000F4F910BD10B50446234601223721D020CB
:10584000FCF7EBF910BD10B50220FFF7B0FF032005
:10585000FFF7B7FF0020FFF7BEFF0020FFF7C5FFEF
:105860000020FFF7DEFF0020FFF7E4FF10BD38B592
:10587000002000906B46012275216820FCF7C8F8D3
:1058800056A000F0F1FE9DF8000068280ED000BF81
:105890005B48006800F4E0605A490843001D58491D
:1058A0000860BFF3408F00BF00BFFEE7FDF757FC65
:1058B00000283CD17820FDF7BAF810B947A000F0D5
:1058C000D3FE7820FDF79AFA10B94FA000F0CCFE75
:1058D000C820FDF774FB10B955A000F0C5FEFEF717
:1058E00031FF10B95CA000F0BFFE6848FFF709FE69
:1058F0000446FEF731FF10B965A000F0B5FE40F296
:105900007310FFF76AFB10B96BA000F0ADFEC82062
:10591000FFF7DCF810B972A000F0A6FEFFF705FE55
:105920000120FEF755FC10B976A000F09DFE38BDB1
:105930002DE9F04F8FB00CA87B490DAB08AACDE93B
:1059400000107A497A48FFF7A7FC7748008800F4EE
:10595000807000282AD0089803F00EF904464FF012
:105960009D4102F0D7FF73490860099803F004F9DC
:1059700004464FF09D4102F0CDFF6F4908600A9840
:1059800003F0FAF804464FF09D4102F0C3FF6B4963
:1059900008600B9803F0F0F804464FF09D4102F0C8
:1059A000B9FF6749086063480168CBE0A0E10000E7
:1059B00073657474696E67206269617320737563BF
:1059C00063657366756C6C79202E2E2E2E2E2E0D2F
:1059D0000A00000012060020040600206D70755FAA
:1059E0007365745F73656E736F7220636F6D706C37
:1059F000657465202E2E2E2E2E2E0D0A000000001E
:105A00000CED00E00000FA056D70755F636F6E6667
:105A100069677572655F6669666F20636F6D706C2C
:105A2000657465202E2E2E2E2E2E0D0A00000000ED
:105A30006D70755F7365745F73616D706C655F72B7
:105A400061746520636F6D706C657465202E2E2EF9
:105A50002E2E2E0D0A000000646D705F6C6F616465
:105A60005F6D6F74696F6E5F6472697665725F6691
:105A700069726D7761726520636F6D706C657465B6
:105A8000202E2E2E2E2E2E0D0A000000400100206A
:105A9000646D705F7365745F6F7269656E74617455
:105AA000696F6E20636F6D706C657465202E2E2E8D
:105AB0002E2E2E0D0A000000646D705F656E61620F
:105AC0006C655F6665617475726520636F6D706C7F
:105AD000657465202E2E2E2E2E2E0D0A000000003D
